{
  "contractName": "Flip",
  "abi": [
    {
      "constant": true,
      "inputs": [],
      "name": "player2Lied",
      "outputs": [
        {
          "name": "",
          "type": "bool"
        }
      ],
      "payable": false,
      "stateMutability": "view",
      "type": "function"
    },
    {
      "constant": true,
      "inputs": [],
      "name": "revealStage",
      "outputs": [
        {
          "name": "",
          "type": "bool"
        }
      ],
      "payable": false,
      "stateMutability": "view",
      "type": "function"
    },
    {
      "constant": true,
      "inputs": [],
      "name": "randomStage",
      "outputs": [
        {
          "name": "",
          "type": "bool"
        }
      ],
      "payable": false,
      "stateMutability": "view",
      "type": "function"
    },
    {
      "constant": true,
      "inputs": [],
      "name": "player1Lied",
      "outputs": [
        {
          "name": "",
          "type": "bool"
        }
      ],
      "payable": false,
      "stateMutability": "view",
      "type": "function"
    },
    {
      "constant": true,
      "inputs": [],
      "name": "here",
      "outputs": [
        {
          "name": "",
          "type": "bool"
        }
      ],
      "payable": false,
      "stateMutability": "view",
      "type": "function"
    },
    {
      "constant": true,
      "inputs": [],
      "name": "randomNumber",
      "outputs": [
        {
          "name": "",
          "type": "uint256"
        }
      ],
      "payable": false,
      "stateMutability": "view",
      "type": "function"
    },
    {
      "constant": true,
      "inputs": [
        {
          "name": "",
          "type": "uint256"
        }
      ],
      "name": "players",
      "outputs": [
        {
          "name": "",
          "type": "address"
        }
      ],
      "payable": false,
      "stateMutability": "view",
      "type": "function"
    },
    {
      "inputs": [],
      "payable": false,
      "stateMutability": "nonpayable",
      "type": "constructor"
    },
    {
      "constant": false,
      "inputs": [],
      "name": "enter",
      "outputs": [],
      "payable": true,
      "stateMutability": "payable",
      "type": "function"
    },
    {
      "constant": false,
      "inputs": [
        {
          "name": "preImg",
          "type": "bytes32"
        }
      ],
      "name": "commit",
      "outputs": [],
      "payable": false,
      "stateMutability": "nonpayable",
      "type": "function"
    },
    {
      "constant": false,
      "inputs": [
        {
          "name": "val",
          "type": "uint256"
        }
      ],
      "name": "reveal",
      "outputs": [],
      "payable": false,
      "stateMutability": "nonpayable",
      "type": "function"
    },
    {
      "constant": false,
      "inputs": [],
      "name": "killSwitch",
      "outputs": [],
      "payable": false,
      "stateMutability": "nonpayable",
      "type": "function"
    },
    {
      "constant": true,
      "inputs": [],
      "name": "getRandomStage",
      "outputs": [
        {
          "name": "",
          "type": "bool"
        }
      ],
      "payable": false,
      "stateMutability": "view",
      "type": "function"
    },
    {
      "constant": true,
      "inputs": [],
      "name": "getRevealStage",
      "outputs": [
        {
          "name": "",
          "type": "bool"
        }
      ],
      "payable": false,
      "stateMutability": "view",
      "type": "function"
    },
    {
      "constant": true,
      "inputs": [],
      "name": "getPlayer1Lied",
      "outputs": [
        {
          "name": "",
          "type": "bool"
        }
      ],
      "payable": false,
      "stateMutability": "view",
      "type": "function"
    },
    {
      "constant": true,
      "inputs": [],
      "name": "getPlayer2Lied",
      "outputs": [
        {
          "name": "",
          "type": "bool"
        }
      ],
      "payable": false,
      "stateMutability": "view",
      "type": "function"
    },
    {
      "constant": true,
      "inputs": [],
      "name": "getbothPlayersIn",
      "outputs": [
        {
          "name": "",
          "type": "uint256"
        }
      ],
      "payable": false,
      "stateMutability": "view",
      "type": "function"
    },
    {
      "constant": true,
      "inputs": [],
      "name": "getPlayers",
      "outputs": [
        {
          "name": "",
          "type": "address[]"
        }
      ],
      "payable": false,
      "stateMutability": "view",
      "type": "function"
    },
    {
      "constant": true,
      "inputs": [],
      "name": "getWinner",
      "outputs": [
        {
          "name": "",
          "type": "address"
        }
      ],
      "payable": false,
      "stateMutability": "view",
      "type": "function"
    }
  ],
  "bytecode": "0x60806040526000600160006101000a81548160ff02191690831515021790555060006001806101000a81548160ff0219169083151502179055506000600160026101000a81548160ff0219169083151502179055506000600160036101000a81548160ff0219169083151502179055506000600160046101000a81548160ff021916908360ff1602179055506000600460006101000a81548173ffffffffffffffffffffffffffffffffffffffff021916908373ffffffffffffffffffffffffffffffffffffffff1602179055506000600560146101000a81548160ff021916908315150217905550600060065530600760006101000a81548173ffffffffffffffffffffffffffffffffffffffff021916908373ffffffffffffffffffffffffffffffffffffffff16021790555034801561013a57600080fd5b5033600560006101000a81548173ffffffffffffffffffffffffffffffffffffffff021916908373ffffffffffffffffffffffffffffffffffffffff1602179055506113638061018b6000396000f3006080604052600436106100fc576000357c0100000000000000000000000000000000000000000000000000000000900463ffffffff16806313e11222146101015780632ec0e9d9146101305780635a846e481461015f5780635e41d1471461018a578063677f83e6146101b9578063848c091b146101e85780638b5b9ccc146102175780638e7ea5b21461028357806395ea59ec146102da5780639626d36214610309578063ada1469814610338578063b4c123e61461034f578063c2ca0ac51461037e578063cc5ea9c3146103ab578063ccbac9f5146103da578063e97dcb6214610405578063f14fcbc81461040f578063f71d96cb14610440575b600080fd5b34801561010d57600080fd5b506101166104ad565b604051808215151515815260200191505060405180910390f35b34801561013c57600080fd5b506101456104c3565b604051808215151515815260200191505060405180910390f35b34801561016b57600080fd5b506101746104d6565b6040518082815260200191505060405180910390f35b34801561019657600080fd5b5061019f6104f0565b604051808215151515815260200191505060405180910390f35b3480156101c557600080fd5b506101ce610507565b604051808215151515815260200191505060405180910390f35b3480156101f457600080fd5b506101fd610519565b604051808215151515815260200191505060405180910390f35b34801561022357600080fd5b5061022c61052c565b6040518080602001828103825283818151815260200191508051906020019060200280838360005b8381101561026f578082015181840152602081019050610254565b505050509050019250505060405180910390f35b34801561028f57600080fd5b506102986105ba565b604051808273ffffffffffffffffffffffffffffffffffffffff1673ffffffffffffffffffffffffffffffffffffffff16815260200191505060405180910390f35b3480156102e657600080fd5b506102ef6105e4565b604051808215151515815260200191505060405180910390f35b34801561031557600080fd5b5061031e6105fb565b604051808215151515815260200191505060405180910390f35b34801561034457600080fd5b5061034d610612565b005b34801561035b57600080fd5b5061036461074b565b604051808215151515815260200191505060405180910390f35b34801561038a57600080fd5b506103a96004803603810190808035906020019092919050505061075e565b005b3480156103b757600080fd5b506103c06108de565b604051808215151515815260200191505060405180910390f35b3480156103e657600080fd5b506103ef6108f1565b6040518082815260200191505060405180910390f35b61040d6108f7565b005b34801561041b57600080fd5b5061043e60048036038101908080356000191690602001909291905050506109b3565b005b34801561044c57600080fd5b5061046b60048036038101908080359060200190929190505050610b65565b604051808273ffffffffffffffffffffffffffffffffffffffff1673ffffffffffffffffffffffffffffffffffffffff16815260200191505060405180910390f35b60006001809054906101000a900460ff16905090565b600160039054906101000a900460ff1681565b6000600160049054906101000a900460ff1660ff16905090565b6000600160029054906101000a900460ff16905090565b6001809054906101000a900460ff1681565b600160009054906101000a900460ff1681565b606060008054806020026020016040519081016040528092919081815260200182805480156105b057602002820191906000526020600020905b8160009054906101000a900473ffffffffffffffffffffffffffffffffffffffff1673ffffffffffffffffffffffffffffffffffffffff1681526020019060010190808311610566575b5050505050905090565b6000600460009054906101000a900473ffffffffffffffffffffffffffffffffffffffff16905090565b6000600160009054906101000a900460ff16905090565b6000600160039054906101000a900460ff16905090565b600560009054906101000a900473ffffffffffffffffffffffffffffffffffffffff1673ffffffffffffffffffffffffffffffffffffffff163373ffffffffffffffffffffffffffffffffffffffff1614151561066e57600080fd5b600560009054906101000a900473ffffffffffffffffffffffffffffffffffffffff1673ffffffffffffffffffffffffffffffffffffffff166108fc600760009054906101000a900473ffffffffffffffffffffffffffffffffffffffff1673ffffffffffffffffffffffffffffffffffffffff16319081150290604051600060405180830381858888f1935050505015801561070f573d6000803e3d6000fd5b50600560009054906101000a900473ffffffffffffffffffffffffffffffffffffffff1673ffffffffffffffffffffffffffffffffffffffff16ff5b600160029054906101000a900460ff1681565b60008081548110151561076d57fe5b9060005260206000200160009054906101000a900473ffffffffffffffffffffffffffffffffffffffff1673ffffffffffffffffffffffffffffffffffffffff163373ffffffffffffffffffffffffffffffffffffffff1614806108365750600060018154811015156107dc57fe5b9060005260206000200160009054906101000a900473ffffffffffffffffffffffffffffffffffffffff1673ffffffffffffffffffffffffffffffffffffffff163373ffffffffffffffffffffffffffffffffffffffff16145b151561084157600080fd5b80600360003373ffffffffffffffffffffffffffffffffffffffff1673ffffffffffffffffffffffffffffffffffffffff168152602001908152602001600020819055506001600481819054906101000a900460ff168092919060010191906101000a81548160ff021916908360ff160217905550506002600160049054906101000a900460ff1660ff1614156108db576108da610ba3565b5b50565b600560149054906101000a900460ff1681565b60065481565b662386f26fc100003411151561090c57600080fd5b6002600080549050101515151561092257600080fd5b60003390806001815401808255809150509060018203906000526020600020016000909192909190916101000a81548173ffffffffffffffffffffffffffffffffffffffff021916908373ffffffffffffffffffffffffffffffffffffffff16021790555050600260008054905014156109b15760018060006101000a81548160ff0219169083151502179055505b565b6000808154811015156109c257fe5b9060005260206000200160009054906101000a900473ffffffffffffffffffffffffffffffffffffffff1673ffffffffffffffffffffffffffffffffffffffff163373ffffffffffffffffffffffffffffffffffffffff161480610a8b575060006001815481101515610a3157fe5b9060005260206000200160009054906101000a900473ffffffffffffffffffffffffffffffffffffffff1673ffffffffffffffffffffffffffffffffffffffff163373ffffffffffffffffffffffffffffffffffffffff16145b1515610a9657600080fd5b80600260003373ffffffffffffffffffffffffffffffffffffffff1673ffffffffffffffffffffffffffffffffffffffff16815260200190815260200160002081600019169055506001600481819054906101000a900460ff168092919060010191906101000a81548160ff021916908360ff160217905550506002600160049054906101000a900460ff1660ff161415610b625760018060016101000a81548160ff0219169083151502179055506000600160046101000a81548160ff021916908360ff1602179055505b50565b600081815481101515610b7457fe5b906000526020600020016000915054906101000a900473ffffffffffffffffffffffffffffffffffffffff1681565b600080600080600080815481101515610bb857fe5b9060005260206000200160009054906101000a900473ffffffffffffffffffffffffffffffffffffffff16935060006001815481101515610bf557fe5b9060005260206000200160009054906101000a900473ffffffffffffffffffffffffffffffffffffffff169250600360008573ffffffffffffffffffffffffffffffffffffffff1673ffffffffffffffffffffffffffffffffffffffff16815260200190815260200160002054604051602001808281526020019150506040516020818303038152906040526040518082805190602001908083835b602083101515610cb65780518252602082019150602081019050602083039250610c91565b6001836020036101000a03801982511681845116808217855250505050505090500191505060405180910390209150600360008473ffffffffffffffffffffffffffffffffffffffff1673ffffffffffffffffffffffffffffffffffffffff16815260200190815260200160002054604051602001808281526020019150506040516020818303038152906040526040518082805190602001908083835b602083101515610d795780518252602082019150602081019050602083039250610d54565b6001836020036101000a03801982511681845116808217855250505050505090500191505060405180910390209050600260008573ffffffffffffffffffffffffffffffffffffffff1673ffffffffffffffffffffffffffffffffffffffff168152602001908152602001600020546000191682600019161415610ed35760018060026101000a81548160ff02191690831515021790555082600460006101000a81548173ffffffffffffffffffffffffffffffffffffffff021916908373ffffffffffffffffffffffffffffffffffffffff1602179055508273ffffffffffffffffffffffffffffffffffffffff166108fc600760009054906101000a900473ffffffffffffffffffffffffffffffffffffffff1673ffffffffffffffffffffffffffffffffffffffff16319081150290604051600060405180830381858888f19350505050158015610ed1573d6000803e3d6000fd5b505b600260008473ffffffffffffffffffffffffffffffffffffffff1673ffffffffffffffffffffffffffffffffffffffff168152602001908152602001600020546000191681600019161415610ffe5760018060036101000a81548160ff02191690831515021790555083600460006101000a81548173ffffffffffffffffffffffffffffffffffffffff021916908373ffffffffffffffffffffffffffffffffffffffff1602179055508373ffffffffffffffffffffffffffffffffffffffff166108fc600760009054906101000a900473ffffffffffffffffffffffffffffffffffffffff1673ffffffffffffffffffffffffffffffffffffffff16319081150290604051600060405180830381858888f19350505050158015610ffc573d6000803e3d6000fd5b505b60001515600160039054906101000a900460ff161515148015611034575060001515600160029054906101000a900460ff161515145b1561105057611041611056565b60068190555061104f6111eb565b5b50505050565b60006002600080600081548110151561106b57fe5b9060005260206000200160009054906101000a900473ffffffffffffffffffffffffffffffffffffffff1673ffffffffffffffffffffffffffffffffffffffff1673ffffffffffffffffffffffffffffffffffffffff16815260200190815260200160002054600260008060018154811015156110e457fe5b9060005260206000200160009054906101000a900473ffffffffffffffffffffffffffffffffffffffff1673ffffffffffffffffffffffffffffffffffffffff1673ffffffffffffffffffffffffffffffffffffffff168152602001908152602001600020546040516020018083600019166000191681526020018260001916600019168152602001925050506040516020818303038152906040526040518082805190602001908083835b6020831015156111b55780518252602082019150602081019050602083039250611190565b6001836020036101000a038019825116818451168082178552505050505050905001915050604051809103902060019004905090565b600080805490506006548115156111fe57fe5b06905060008181548110151561121057fe5b9060005260206000200160009054906101000a900473ffffffffffffffffffffffffffffffffffffffff1673ffffffffffffffffffffffffffffffffffffffff166108fc600760009054906101000a900473ffffffffffffffffffffffffffffffffffffffff1673ffffffffffffffffffffffffffffffffffffffff16319081150290604051600060405180830381858888f193505050501580156112b9573d6000803e3d6000fd5b506000818154811015156112c957fe5b9060005260206000200160009054906101000a900473ffffffffffffffffffffffffffffffffffffffff16600460006101000a81548173ffffffffffffffffffffffffffffffffffffffff021916908373ffffffffffffffffffffffffffffffffffffffff160217905550505600a165627a7a72305820dbb9d28355628efb11bc0af3163f0e534c3e9dc059706fce956fc228d5093be90029",
  "source": "pragma solidity ^0.4.21;\n\ncontract Flip {\n    address[] public players;\n    bool public randomStage = false;\n    bool public revealStage = false;\n    bool public player1Lied = false;\n    bool public player2Lied = false;\n    uint8 bothPlayersIn = 0;\n    mapping(address => bytes32) addressToPreImg;\n    mapping(address => uint) addressToRevealValue;\n    address winner = 0x000;\n    address manager;\n    bool public here = false;\n    uint public randomNumber = 0;\n    address contractAddress = this;\n\n    constructor() public {\n        manager = msg.sender;\n    }\n\n    // allows player to enter game, min\n    function enter() public payable {\n        require(msg.value > .01 ether);\n        require(!(players.length >= 2));\n\n        players.push(msg.sender);\n        if(players.length == 2) {\n            randomStage = true;\n          //call run start flip function\n          //send req to send pre img\n        }\n        /* TODO: BLOCKTIMES */\n    }\n\n    function commit(bytes32 preImg) public playerRestricted {\n        //mapping to be set on the address\n        addressToPreImg[msg.sender] = preImg;\n        bothPlayersIn++;\n        //check if both address are in and then run set revealStage = true\n        if(bothPlayersIn == 2){\n            revealStage = true;\n            bothPlayersIn = 0;\n      }\n    }\n\n    function reveal(uint val) public playerRestricted {\n        addressToRevealValue[msg.sender] = val;\n        bothPlayersIn++;\n        //check if both address are in and then run set revealStage = true\n        if(bothPlayersIn == 2){\n            checkReveal();\n        }\n    }\n\n    function checkReveal() private {\n        //takes in a value an\n        address player1 = players[0];\n        address player2 = players[1];\n        //check the validity\n\n        bytes32 player1Check = keccak256(abi.encodePacked(addressToRevealValue[player1]));\n        bytes32 player2Check = keccak256(abi.encodePacked(addressToRevealValue[player2]));\n\n        //check player 1\n        if(player1Check==addressToPreImg[player1]){\n            player1Lied = true;\n            winner = player2;\n            player2.transfer(contractAddress.balance);\n        }\n\n        //check player 2\n        if(player2Check==addressToPreImg[player2]){\n            player2Lied = true;\n            winner = player1;\n            player1.transfer(contractAddress.balance);\n        }\n        //run random winner if both are honest\n        if(player2Lied == false && player1Lied == false){\n            randomNumber = random();\n            pickWinner();\n        }\n    }\n\n /* TODO: check for blocktimes in modifier moneys go to user who sent, send both back if nobody sent*/\n\n    function pickWinner() private {\n        uint index = randomNumber % players.length;\n        players[index].transfer(contractAddress.balance);\n        //send winner money\n        winner = players[index];\n    }\n\n    //get both random nums and keccak256 them together\n    function random() private view returns (uint) {\n        return uint(keccak256(abi.encodePacked(addressToPreImg[players[0]], addressToPreImg[players[1]])));\n    }\n\n    // kills contract and sends remainder to manager\n    function killSwitch() public managerRestricted {\n        manager.transfer(contractAddress.balance);\n        selfdestruct(manager);\n    } \n\n    // restricts function to only players\n    modifier playerRestricted() {\n        require(msg.sender == players[0] || msg.sender == players[1]);\n        _;\n    }\n\n    // restricts function to only manager for self destruct case\n    modifier managerRestricted() {\n        require(msg.sender == manager);\n        _;\n    }\n\n //Getters\n    function getRandomStage() public view returns (bool){\n        return randomStage;\n    }\n\n    function getRevealStage() public view returns (bool){\n        return revealStage;\n    }\n\n    function getPlayer1Lied() public view returns (bool){\n        return player1Lied;\n    }\n\n    function getPlayer2Lied() public view returns (bool){\n        return player2Lied;\n    }\n\n    function getbothPlayersIn() public view returns (uint){\n        return bothPlayersIn;\n    }\n\n    function getPlayers() public view returns (address[]){\n        return players;\n    }\n\n    function getWinner() public view returns (address){\n        return winner;\n    }\n\n}",
  "sourcePath": "/Users/chris.battenfield/Desktop/giphe/contracts/Flip.sol",
  "compiler": {
    "name": "solc",
    "version": "0.4.24+commit.e67f0147.Emscripten.clang"
  },
  "schemaVersion": "2.0.1",
  "updatedAt": "2018-08-28T11:28:10.506Z"
}